{
  "_format": "hh-sol-artifact-1",
  "contractName": "Web3Mint",
  "sourceName": "contracts/Web3Mint.sol",
  "abi": [
    {
      "inputs": [],
      "stateMutability": "nonpayable",
      "type": "constructor"
    },
    {
      "anonymous": false,
      "inputs": [
        {
          "indexed": true,
          "internalType": "address",
          "name": "owner",
          "type": "address"
        },
        {
          "indexed": true,
          "internalType": "address",
          "name": "approved",
          "type": "address"
        },
        {
          "indexed": true,
          "internalType": "uint256",
          "name": "tokenId",
          "type": "uint256"
        }
      ],
      "name": "Approval",
      "type": "event"
    },
    {
      "anonymous": false,
      "inputs": [
        {
          "indexed": true,
          "internalType": "address",
          "name": "owner",
          "type": "address"
        },
        {
          "indexed": true,
          "internalType": "address",
          "name": "operator",
          "type": "address"
        },
        {
          "indexed": false,
          "internalType": "bool",
          "name": "approved",
          "type": "bool"
        }
      ],
      "name": "ApprovalForAll",
      "type": "event"
    },
    {
      "anonymous": false,
      "inputs": [
        {
          "indexed": true,
          "internalType": "address",
          "name": "from",
          "type": "address"
        },
        {
          "indexed": true,
          "internalType": "address",
          "name": "to",
          "type": "address"
        },
        {
          "indexed": true,
          "internalType": "uint256",
          "name": "tokenId",
          "type": "uint256"
        }
      ],
      "name": "Transfer",
      "type": "event"
    },
    {
      "inputs": [
        {
          "internalType": "address",
          "name": "to",
          "type": "address"
        },
        {
          "internalType": "uint256",
          "name": "tokenId",
          "type": "uint256"
        }
      ],
      "name": "approve",
      "outputs": [],
      "stateMutability": "nonpayable",
      "type": "function"
    },
    {
      "inputs": [
        {
          "internalType": "address",
          "name": "owner",
          "type": "address"
        }
      ],
      "name": "balanceOf",
      "outputs": [
        {
          "internalType": "uint256",
          "name": "",
          "type": "uint256"
        }
      ],
      "stateMutability": "view",
      "type": "function"
    },
    {
      "inputs": [
        {
          "internalType": "uint256",
          "name": "tokenId",
          "type": "uint256"
        }
      ],
      "name": "getApproved",
      "outputs": [
        {
          "internalType": "address",
          "name": "",
          "type": "address"
        }
      ],
      "stateMutability": "view",
      "type": "function"
    },
    {
      "inputs": [
        {
          "internalType": "address",
          "name": "owner",
          "type": "address"
        },
        {
          "internalType": "address",
          "name": "operator",
          "type": "address"
        }
      ],
      "name": "isApprovedForAll",
      "outputs": [
        {
          "internalType": "bool",
          "name": "",
          "type": "bool"
        }
      ],
      "stateMutability": "view",
      "type": "function"
    },
    {
      "inputs": [
        {
          "internalType": "string",
          "name": "name",
          "type": "string"
        },
        {
          "internalType": "string",
          "name": "imageURI",
          "type": "string"
        }
      ],
      "name": "mintIpfsNFT",
      "outputs": [],
      "stateMutability": "nonpayable",
      "type": "function"
    },
    {
      "inputs": [],
      "name": "name",
      "outputs": [
        {
          "internalType": "string",
          "name": "",
          "type": "string"
        }
      ],
      "stateMutability": "view",
      "type": "function"
    },
    {
      "inputs": [
        {
          "internalType": "uint256",
          "name": "tokenId",
          "type": "uint256"
        }
      ],
      "name": "ownerOf",
      "outputs": [
        {
          "internalType": "address",
          "name": "",
          "type": "address"
        }
      ],
      "stateMutability": "view",
      "type": "function"
    },
    {
      "inputs": [
        {
          "internalType": "address",
          "name": "from",
          "type": "address"
        },
        {
          "internalType": "address",
          "name": "to",
          "type": "address"
        },
        {
          "internalType": "uint256",
          "name": "tokenId",
          "type": "uint256"
        }
      ],
      "name": "safeTransferFrom",
      "outputs": [],
      "stateMutability": "nonpayable",
      "type": "function"
    },
    {
      "inputs": [
        {
          "internalType": "address",
          "name": "from",
          "type": "address"
        },
        {
          "internalType": "address",
          "name": "to",
          "type": "address"
        },
        {
          "internalType": "uint256",
          "name": "tokenId",
          "type": "uint256"
        },
        {
          "internalType": "bytes",
          "name": "data",
          "type": "bytes"
        }
      ],
      "name": "safeTransferFrom",
      "outputs": [],
      "stateMutability": "nonpayable",
      "type": "function"
    },
    {
      "inputs": [
        {
          "internalType": "address",
          "name": "operator",
          "type": "address"
        },
        {
          "internalType": "bool",
          "name": "approved",
          "type": "bool"
        }
      ],
      "name": "setApprovalForAll",
      "outputs": [],
      "stateMutability": "nonpayable",
      "type": "function"
    },
    {
      "inputs": [
        {
          "internalType": "bytes4",
          "name": "interfaceId",
          "type": "bytes4"
        }
      ],
      "name": "supportsInterface",
      "outputs": [
        {
          "internalType": "bool",
          "name": "",
          "type": "bool"
        }
      ],
      "stateMutability": "view",
      "type": "function"
    },
    {
      "inputs": [],
      "name": "symbol",
      "outputs": [
        {
          "internalType": "string",
          "name": "",
          "type": "string"
        }
      ],
      "stateMutability": "view",
      "type": "function"
    },
    {
      "inputs": [
        {
          "internalType": "uint256",
          "name": "_tokenId",
          "type": "uint256"
        }
      ],
      "name": "tokenURI",
      "outputs": [
        {
          "internalType": "string",
          "name": "",
          "type": "string"
        }
      ],
      "stateMutability": "view",
      "type": "function"
    },
    {
      "inputs": [
        {
          "internalType": "address",
          "name": "from",
          "type": "address"
        },
        {
          "internalType": "address",
          "name": "to",
          "type": "address"
        },
        {
          "internalType": "uint256",
          "name": "tokenId",
          "type": "uint256"
        }
      ],
      "name": "transferFrom",
      "outputs": [],
      "stateMutability": "nonpayable",
      "type": "function"
    },
    {
      "inputs": [
        {
          "internalType": "address",
          "name": "NFTAddress",
          "type": "address"
        },
        {
          "internalType": "address",
          "name": "_receiver",
          "type": "address"
        },
        {
          "internalType": "uint256",
          "name": "_NFTId",
          "type": "uint256"
        }
      ],
      "name": "transferNFT",
      "outputs": [],
      "stateMutability": "nonpayable",
      "type": "function"
    }
  ],
  "bytecode": "0x60806040523480156200001157600080fd5b506040518060400160405280600381526020017f4e465400000000000000000000000000000000000000000000000000000000008152506040518060400160405280600381526020017f6e66740000000000000000000000000000000000000000000000000000000000815250816000908051906020019062000096929190620001cf565b508060019080519060200190620000af929190620001cf565b505050620000fd6040518060400160405280601881526020017f54686973206973206d79204e465420636f6e74726163742e00000000000000008152506200010360201b62000bb01760201c565b620003ac565b620001a3816040516024016200011a9190620002c0565b6040516020818303038152906040527f41304fac000000000000000000000000000000000000000000000000000000007bffffffffffffffffffffffffffffffffffffffffffffffffffffffff19166020820180517bffffffffffffffffffffffffffffffffffffffffffffffffffffffff8381831617835250505050620001a660201b60201c565b50565b60008151905060006a636f6e736f6c652e6c6f679050602083016000808483855afa5050505050565b828054620001dd9062000336565b90600052602060002090601f0160209004810192826200020157600085556200024d565b82601f106200021c57805160ff19168380011785556200024d565b828001600101855582156200024d579182015b828111156200024c5782518255916020019190600101906200022f565b5b5090506200025c919062000260565b5090565b5b808211156200027b57600081600090555060010162000261565b5090565b60006200028c82620002e4565b620002988185620002ef565b9350620002aa81856020860162000300565b620002b5816200039b565b840191505092915050565b60006020820190508181036000830152620002dc81846200027f565b905092915050565b600081519050919050565b600082825260208201905092915050565b60005b838110156200032057808201518184015260208101905062000303565b8381111562000330576000848401525b50505050565b600060028204905060018216806200034f57607f821691505b602082108114156200036657620003656200036c565b5b50919050565b7f4e487b7100000000000000000000000000000000000000000000000000000000600052602260045260246000fd5b6000601f19601f8301169050919050565b612f6580620003bc6000396000f3fe608060405234801561001057600080fd5b50600436106100f55760003560e01c806369e9cae111610097578063b88d4fde11610066578063b88d4fde14610282578063c87b56dd1461029e578063e985e9c5146102ce578063eb00195d146102fe576100f5565b806369e9cae1146101fc57806370a082311461021857806395d89b4114610248578063a22cb46514610266576100f5565b8063095ea7b3116100d3578063095ea7b31461017857806323b872dd1461019457806342842e0e146101b05780636352211e146101cc576100f5565b806301ffc9a7146100fa57806306fdde031461012a578063081812fc14610148575b600080fd5b610114600480360381019061010f9190611ee1565b61031a565b6040516101219190612464565b60405180910390f35b6101326103fc565b60405161013f919061247f565b60405180910390f35b610162600480360381019061015d9190611f9f565b61048e565b60405161016f91906123c6565b60405180910390f35b610192600480360381019061018d9190611ea5565b6104d4565b005b6101ae60048036038101906101a99190611d9f565b6105ec565b005b6101ca60048036038101906101c59190611d9f565b61064c565b005b6101e660048036038101906101e19190611f9f565b61066c565b6040516101f391906123c6565b60405180910390f35b61021660048036038101906102119190611d9f565b61071e565b005b610232600480360381019061022d9190611d3a565b610798565b60405161023f919061263f565b60405180910390f35b610250610850565b60405161025d919061247f565b60405180910390f35b610280600480360381019061027b9190611e69565b6108e2565b005b61029c60048036038101906102979190611dee565b6108f8565b005b6102b860048036038101906102b39190611f9f565b61095a565b6040516102c5919061247f565b60405180910390f35b6102e860048036038101906102e39190611d63565b610a56565b6040516102f59190612464565b60405180910390f35b61031860048036038101906103139190611f33565b610aea565b005b60007f80ac58cd000000000000000000000000000000000000000000000000000000007bffffffffffffffffffffffffffffffffffffffffffffffffffffffff1916827bffffffffffffffffffffffffffffffffffffffffffffffffffffffff191614806103e557507f5b5e139f000000000000000000000000000000000000000000000000000000007bffffffffffffffffffffffffffffffffffffffffffffffffffffffff1916827bffffffffffffffffffffffffffffffffffffffffffffffffffffffff1916145b806103f557506103f482610c49565b5b9050919050565b60606000805461040b90612904565b80601f016020809104026020016040519081016040528092919081815260200182805461043790612904565b80156104845780601f1061045957610100808354040283529160200191610484565b820191906000526020600020905b81548152906001019060200180831161046757829003601f168201915b5050505050905090565b600061049982610cb3565b6004600083815260200190815260200160002060009054906101000a900473ffffffffffffffffffffffffffffffffffffffff169050919050565b60006104df8261066c565b90508073ffffffffffffffffffffffffffffffffffffffff168373ffffffffffffffffffffffffffffffffffffffff161415610550576040517f08c379a0000000000000000000000000000000000000000000000000000000008152600401610547906125ff565b60405180910390fd5b8073ffffffffffffffffffffffffffffffffffffffff1661056f610cfe565b73ffffffffffffffffffffffffffffffffffffffff16148061059e575061059d81610598610cfe565b610a56565b5b6105dd576040517f08c379a00000000000000000000000000000000000000000000000000000000081526004016105d49061259f565b60405180910390fd5b6105e78383610d06565b505050565b6105fd6105f7610cfe565b82610dbf565b61063c576040517f08c379a00000000000000000000000000000000000000000000000000000000081526004016106339061261f565b60405180910390fd5b610647838383610e54565b505050565b610667838383604051806020016040528060008152506108f8565b505050565b6000806002600084815260200190815260200160002060009054906101000a900473ffffffffffffffffffffffffffffffffffffffff169050600073ffffffffffffffffffffffffffffffffffffffff168173ffffffffffffffffffffffffffffffffffffffff161415610715576040517f08c379a000000000000000000000000000000000000000000000000000000000815260040161070c906125df565b60405180910390fd5b80915050919050565b60008390508073ffffffffffffffffffffffffffffffffffffffff166323b872dd3085856040518463ffffffff1660e01b8152600401610760939291906123e1565b600060405180830381600087803b15801561077a57600080fd5b505af115801561078e573d6000803e3d6000fd5b5050505050505050565b60008073ffffffffffffffffffffffffffffffffffffffff168273ffffffffffffffffffffffffffffffffffffffff161415610809576040517f08c379a00000000000000000000000000000000000000000000000000000000081526004016108009061257f565b60405180910390fd5b600360008373ffffffffffffffffffffffffffffffffffffffff1673ffffffffffffffffffffffffffffffffffffffff168152602001908152602001600020549050919050565b60606001805461085f90612904565b80601f016020809104026020016040519081016040528092919081815260200182805461088b90612904565b80156108d85780601f106108ad576101008083540402835291602001916108d8565b820191906000526020600020905b8154815290600101906020018083116108bb57829003601f168201915b5050505050905090565b6108f46108ed610cfe565b83836110bb565b5050565b610909610903610cfe565b83610dbf565b610948576040517f08c379a000000000000000000000000000000000000000000000000000000000815260040161093f9061261f565b60405180910390fd5b61095484848484611228565b50505050565b60606000610a266006848154811061099b577f4e487b7100000000000000000000000000000000000000000000000000000000600052603260045260246000fd5b90600052602060002090600202016000016109b585611284565b600686815481106109ef577f4e487b7100000000000000000000000000000000000000000000000000000000600052603260045260246000fd5b9060005260206000209060020201600101604051602001610a1293929190612347565b604051602081830303815290604052611431565b9050600081604051602001610a3b91906123a4565b60405160208183030381529060405290508092505050919050565b6000600560008473ffffffffffffffffffffffffffffffffffffffff1673ffffffffffffffffffffffffffffffffffffffff16815260200190815260200160002060008373ffffffffffffffffffffffffffffffffffffffff1673ffffffffffffffffffffffffffffffffffffffff16815260200190815260200160002060009054906101000a900460ff16905092915050565b6000610af660076115ef565b9050610b0233826115fd565b600660405180604001604052808581526020018481525090806001815401808255809150506001900390600052602060002090600202016000909190919091506000820151816000019080519060200190610b5e929190611b5e565b506020820151816001019080519060200190610b7b929190611b5e565b505050610ba1604051806060016040528060258152602001612ecb60259139823361161b565b610bab60076116ba565b505050565b610c4681604051602401610bc4919061247f565b6040516020818303038152906040527f41304fac000000000000000000000000000000000000000000000000000000007bffffffffffffffffffffffffffffffffffffffffffffffffffffffff19166020820180517bffffffffffffffffffffffffffffffffffffffffffffffffffffffff83818316178352505050506116d0565b50565b60007f01ffc9a7000000000000000000000000000000000000000000000000000000007bffffffffffffffffffffffffffffffffffffffffffffffffffffffff1916827bffffffffffffffffffffffffffffffffffffffffffffffffffffffff1916149050919050565b610cbc816116f9565b610cfb576040517f08c379a0000000000000000000000000000000000000000000000000000000008152600401610cf2906125df565b60405180910390fd5b50565b600033905090565b816004600083815260200190815260200160002060006101000a81548173ffffffffffffffffffffffffffffffffffffffff021916908373ffffffffffffffffffffffffffffffffffffffff160217905550808273ffffffffffffffffffffffffffffffffffffffff16610d798361066c565b73ffffffffffffffffffffffffffffffffffffffff167f8c5be1e5ebec7d5bd14f71427d1e84f3dd0314c0f7b2291e5b200ac8c7c3b92560405160405180910390a45050565b600080610dcb8361066c565b90508073ffffffffffffffffffffffffffffffffffffffff168473ffffffffffffffffffffffffffffffffffffffff161480610e0d5750610e0c8185610a56565b5b80610e4b57508373ffffffffffffffffffffffffffffffffffffffff16610e338461048e565b73ffffffffffffffffffffffffffffffffffffffff16145b91505092915050565b8273ffffffffffffffffffffffffffffffffffffffff16610e748261066c565b73ffffffffffffffffffffffffffffffffffffffff1614610eca576040517f08c379a0000000000000000000000000000000000000000000000000000000008152600401610ec1906124ff565b60405180910390fd5b600073ffffffffffffffffffffffffffffffffffffffff168273ffffffffffffffffffffffffffffffffffffffff161415610f3a576040517f08c379a0000000000000000000000000000000000000000000000000000000008152600401610f319061253f565b60405180910390fd5b610f45838383611765565b610f50600082610d06565b6001600360008573ffffffffffffffffffffffffffffffffffffffff1673ffffffffffffffffffffffffffffffffffffffff1681526020019081526020016000206000828254610fa0919061281a565b925050819055506001600360008473ffffffffffffffffffffffffffffffffffffffff1673ffffffffffffffffffffffffffffffffffffffff1681526020019081526020016000206000828254610ff79190612739565b92505081905550816002600083815260200190815260200160002060006101000a81548173ffffffffffffffffffffffffffffffffffffffff021916908373ffffffffffffffffffffffffffffffffffffffff160217905550808273ffffffffffffffffffffffffffffffffffffffff168473ffffffffffffffffffffffffffffffffffffffff167fddf252ad1be2c89b69c2b068fc378daa952ba7f163c4a11628f55a4df523b3ef60405160405180910390a46110b683838361176a565b505050565b8173ffffffffffffffffffffffffffffffffffffffff168373ffffffffffffffffffffffffffffffffffffffff16141561112a576040517f08c379a00000000000000000000000000000000000000000000000000000000081526004016111219061255f565b60405180910390fd5b80600560008573ffffffffffffffffffffffffffffffffffffffff1673ffffffffffffffffffffffffffffffffffffffff16815260200190815260200160002060008473ffffffffffffffffffffffffffffffffffffffff1673ffffffffffffffffffffffffffffffffffffffff16815260200190815260200160002060006101000a81548160ff0219169083151502179055508173ffffffffffffffffffffffffffffffffffffffff168373ffffffffffffffffffffffffffffffffffffffff167f17307eab39ab6107e8899845ad3d59bd9653f200f220920489ca2b5937696c318360405161121b9190612464565b60405180910390a3505050565b611233848484610e54565b61123f8484848461176f565b61127e576040517f08c379a0000000000000000000000000000000000000000000000000000000008152600401611275906124df565b60405180910390fd5b50505050565b606060008214156112cc576040518060400160405280600181526020017f3000000000000000000000000000000000000000000000000000000000000000815250905061142c565b600082905060005b600082146112fe5780806112e790612967565b915050600a826112f7919061278f565b91506112d4565b60008167ffffffffffffffff811115611340577f4e487b7100000000000000000000000000000000000000000000000000000000600052604160045260246000fd5b6040519080825280601f01601f1916602001820160405280156113725781602001600182028036833780820191505090505b5090505b600085146114255760018261138b919061281a565b9150600a8561139a91906129b0565b60306113a69190612739565b60f81b8183815181106113e2577f4e487b7100000000000000000000000000000000000000000000000000000000600052603260045260246000fd5b60200101907effffffffffffffffffffffffffffffffffffffffffffffffffffffffffffff1916908160001a905350600a8561141e919061278f565b9450611376565b8093505050505b919050565b6060600082519050600081141561145a57604051806020016040528060008152509150506115ea565b6000600360028361146b9190612739565b611475919061278f565b600461148191906127c0565b905060006020826114929190612739565b67ffffffffffffffff8111156114d1577f4e487b7100000000000000000000000000000000000000000000000000000000600052604160045260246000fd5b6040519080825280601f01601f1916602001820160405280156115035781602001600182028036833780820191505090505b5090506000604051806060016040528060408152602001612ef0604091399050600181016020830160005b868110156115a75760038101905062ffffff818a015116603f8160121c168401518060081b905060ff603f83600c1c1686015116810190508060081b905060ff603f8360061c1686015116810190508060081b905060ff603f831686015116810190508060e01b9050808452600484019350505061152e565b5060038606600181146115c157600281146115d1576115dc565b613d3d60f01b60028303526115dc565b603d60f81b60018303525b508484525050819450505050505b919050565b600081600001549050919050565b611617828260405180602001604052806000815250611906565b5050565b6116b5838383604051602401611633939291906124a1565b6040516020818303038152906040527fe3849f79000000000000000000000000000000000000000000000000000000007bffffffffffffffffffffffffffffffffffffffffffffffffffffffff19166020820180517bffffffffffffffffffffffffffffffffffffffffffffffffffffffff83818316178352505050506116d0565b505050565b6001816000016000828254019250508190555050565b60008151905060006a636f6e736f6c652e6c6f679050602083016000808483855afa5050505050565b60008073ffffffffffffffffffffffffffffffffffffffff166002600084815260200190815260200160002060009054906101000a900473ffffffffffffffffffffffffffffffffffffffff1673ffffffffffffffffffffffffffffffffffffffff1614159050919050565b505050565b505050565b60006117908473ffffffffffffffffffffffffffffffffffffffff16611961565b156118f9578373ffffffffffffffffffffffffffffffffffffffff1663150b7a026117b9610cfe565b8786866040518563ffffffff1660e01b81526004016117db9493929190612418565b602060405180830381600087803b1580156117f557600080fd5b505af192505050801561182657506040513d601f19601f820116820180604052508101906118239190611f0a565b60015b6118a9573d8060008114611856576040519150601f19603f3d011682016040523d82523d6000602084013e61185b565b606091505b506000815114156118a1576040517f08c379a0000000000000000000000000000000000000000000000000000000008152600401611898906124df565b60405180910390fd5b805181602001fd5b63150b7a0260e01b7bffffffffffffffffffffffffffffffffffffffffffffffffffffffff1916817bffffffffffffffffffffffffffffffffffffffffffffffffffffffff1916149150506118fe565b600190505b949350505050565b6119108383611984565b61191d600084848461176f565b61195c576040517f08c379a0000000000000000000000000000000000000000000000000000000008152600401611953906124df565b60405180910390fd5b505050565b6000808273ffffffffffffffffffffffffffffffffffffffff163b119050919050565b600073ffffffffffffffffffffffffffffffffffffffff168273ffffffffffffffffffffffffffffffffffffffff1614156119f4576040517f08c379a00000000000000000000000000000000000000000000000000000000081526004016119eb906125bf565b60405180910390fd5b6119fd816116f9565b15611a3d576040517f08c379a0000000000000000000000000000000000000000000000000000000008152600401611a349061251f565b60405180910390fd5b611a4960008383611765565b6001600360008473ffffffffffffffffffffffffffffffffffffffff1673ffffffffffffffffffffffffffffffffffffffff1681526020019081526020016000206000828254611a999190612739565b92505081905550816002600083815260200190815260200160002060006101000a81548173ffffffffffffffffffffffffffffffffffffffff021916908373ffffffffffffffffffffffffffffffffffffffff160217905550808273ffffffffffffffffffffffffffffffffffffffff16600073ffffffffffffffffffffffffffffffffffffffff167fddf252ad1be2c89b69c2b068fc378daa952ba7f163c4a11628f55a4df523b3ef60405160405180910390a4611b5a6000838361176a565b5050565b828054611b6a90612904565b90600052602060002090601f016020900481019282611b8c5760008555611bd3565b82601f10611ba557805160ff1916838001178555611bd3565b82800160010185558215611bd3579182015b82811115611bd2578251825591602001919060010190611bb7565b5b509050611be09190611be4565b5090565b5b80821115611bfd576000816000905550600101611be5565b5090565b6000611c14611c0f8461267f565b61265a565b905082815260208101848484011115611c2c57600080fd5b611c378482856128c2565b509392505050565b6000611c52611c4d846126b0565b61265a565b905082815260208101848484011115611c6a57600080fd5b611c758482856128c2565b509392505050565b600081359050611c8c81612e6e565b92915050565b600081359050611ca181612e85565b92915050565b600081359050611cb681612e9c565b92915050565b600081519050611ccb81612e9c565b92915050565b600082601f830112611ce257600080fd5b8135611cf2848260208601611c01565b91505092915050565b600082601f830112611d0c57600080fd5b8135611d1c848260208601611c3f565b91505092915050565b600081359050611d3481612eb3565b92915050565b600060208284031215611d4c57600080fd5b6000611d5a84828501611c7d565b91505092915050565b60008060408385031215611d7657600080fd5b6000611d8485828601611c7d565b9250506020611d9585828601611c7d565b9150509250929050565b600080600060608486031215611db457600080fd5b6000611dc286828701611c7d565b9350506020611dd386828701611c7d565b9250506040611de486828701611d25565b9150509250925092565b60008060008060808587031215611e0457600080fd5b6000611e1287828801611c7d565b9450506020611e2387828801611c7d565b9350506040611e3487828801611d25565b925050606085013567ffffffffffffffff811115611e5157600080fd5b611e5d87828801611cd1565b91505092959194509250565b60008060408385031215611e7c57600080fd5b6000611e8a85828601611c7d565b9250506020611e9b85828601611c92565b9150509250929050565b60008060408385031215611eb857600080fd5b6000611ec685828601611c7d565b9250506020611ed785828601611d25565b9150509250929050565b600060208284031215611ef357600080fd5b6000611f0184828501611ca7565b91505092915050565b600060208284031215611f1c57600080fd5b6000611f2a84828501611cbc565b91505092915050565b60008060408385031215611f4657600080fd5b600083013567ffffffffffffffff811115611f6057600080fd5b611f6c85828601611cfb565b925050602083013567ffffffffffffffff811115611f8957600080fd5b611f9585828601611cfb565b9150509250929050565b600060208284031215611fb157600080fd5b6000611fbf84828501611d25565b91505092915050565b611fd18161284e565b82525050565b611fe081612860565b82525050565b6000611ff1826126f6565b611ffb818561270c565b935061200b8185602086016128d1565b61201481612a9d565b840191505092915050565b600061202a82612701565b612034818561271d565b93506120448185602086016128d1565b61204d81612a9d565b840191505092915050565b600061206382612701565b61206d818561272e565b935061207d8185602086016128d1565b80840191505092915050565b6000815461209681612904565b6120a0818661272e565b945060018216600081146120bb57600181146120cc576120ff565b60ff198316865281860193506120ff565b6120d5856126e1565b60005b838110156120f7578154818901526001820191506020810190506120d8565b838801955050505b50505092915050565b6000612115600b8361272e565b915061212082612aae565b600b82019050919050565b600061213860328361271d565b915061214382612ad7565b604082019050919050565b600061215b60258361271d565b915061216682612b26565b604082019050919050565b600061217e601c8361271d565b915061218982612b75565b602082019050919050565b60006121a160328361272e565b91506121ac82612b9e565b603282019050919050565b60006121c460248361271d565b91506121cf82612bed565b604082019050919050565b60006121e760198361271d565b91506121f282612c3c565b602082019050919050565b600061220a60298361271d565b915061221582612c65565b604082019050919050565b600061222d60028361272e565b915061223882612cb4565b600282019050919050565b6000612250603e8361271d565b915061225b82612cdd565b604082019050919050565b600061227360208361271d565b915061227e82612d2c565b602082019050919050565b6000612296600a8361272e565b91506122a182612d55565b600a82019050919050565b60006122b960188361271d565b91506122c482612d7e565b602082019050919050565b60006122dc60218361271d565b91506122e782612da7565b604082019050919050565b60006122ff601d8361272e565b915061230a82612df6565b601d82019050919050565b6000612322602e8361271d565b915061232d82612e1f565b604082019050919050565b612341816128b8565b82525050565b600061235282612289565b915061235e8286612089565b915061236982612108565b91506123758285612058565b915061238082612194565b915061238c8284612089565b915061239782612220565b9150819050949350505050565b60006123af826122f2565b91506123bb8284612058565b915081905092915050565b60006020820190506123db6000830184611fc8565b92915050565b60006060820190506123f66000830186611fc8565b6124036020830185611fc8565b6124106040830184612338565b949350505050565b600060808201905061242d6000830187611fc8565b61243a6020830186611fc8565b6124476040830185612338565b81810360608301526124598184611fe6565b905095945050505050565b60006020820190506124796000830184611fd7565b92915050565b60006020820190508181036000830152612499818461201f565b905092915050565b600060608201905081810360008301526124bb818661201f565b90506124ca6020830185612338565b6124d76040830184611fc8565b949350505050565b600060208201905081810360008301526124f88161212b565b9050919050565b600060208201905081810360008301526125188161214e565b9050919050565b6000602082019050818103600083015261253881612171565b9050919050565b60006020820190508181036000830152612558816121b7565b9050919050565b60006020820190508181036000830152612578816121da565b9050919050565b60006020820190508181036000830152612598816121fd565b9050919050565b600060208201905081810360008301526125b881612243565b9050919050565b600060208201905081810360008301526125d881612266565b9050919050565b600060208201905081810360008301526125f8816122ac565b9050919050565b60006020820190508181036000830152612618816122cf565b9050919050565b6000602082019050818103600083015261263881612315565b9050919050565b60006020820190506126546000830184612338565b92915050565b6000612664612675565b90506126708282612936565b919050565b6000604051905090565b600067ffffffffffffffff82111561269a57612699612a6e565b5b6126a382612a9d565b9050602081019050919050565b600067ffffffffffffffff8211156126cb576126ca612a6e565b5b6126d482612a9d565b9050602081019050919050565b60008190508160005260206000209050919050565b600081519050919050565b600081519050919050565b600082825260208201905092915050565b600082825260208201905092915050565b600081905092915050565b6000612744826128b8565b915061274f836128b8565b9250827fffffffffffffffffffffffffffffffffffffffffffffffffffffffffffffffff03821115612784576127836129e1565b5b828201905092915050565b600061279a826128b8565b91506127a5836128b8565b9250826127b5576127b4612a10565b5b828204905092915050565b60006127cb826128b8565b91506127d6836128b8565b9250817fffffffffffffffffffffffffffffffffffffffffffffffffffffffffffffffff048311821515161561280f5761280e6129e1565b5b828202905092915050565b6000612825826128b8565b9150612830836128b8565b925082821015612843576128426129e1565b5b828203905092915050565b600061285982612898565b9050919050565b60008115159050919050565b60007fffffffff0000000000000000000000000000000000000000000000000000000082169050919050565b600073ffffffffffffffffffffffffffffffffffffffff82169050919050565b6000819050919050565b82818337600083830152505050565b60005b838110156128ef5780820151818401526020810190506128d4565b838111156128fe576000848401525b50505050565b6000600282049050600182168061291c57607f821691505b602082108114156129305761292f612a3f565b5b50919050565b61293f82612a9d565b810181811067ffffffffffffffff8211171561295e5761295d612a6e565b5b80604052505050565b6000612972826128b8565b91507fffffffffffffffffffffffffffffffffffffffffffffffffffffffffffffffff8214156129a5576129a46129e1565b5b600182019050919050565b60006129bb826128b8565b91506129c6836128b8565b9250826129d6576129d5612a10565b5b828206905092915050565b7f4e487b7100000000000000000000000000000000000000000000000000000000600052601160045260246000fd5b7f4e487b7100000000000000000000000000000000000000000000000000000000600052601260045260246000fd5b7f4e487b7100000000000000000000000000000000000000000000000000000000600052602260045260246000fd5b7f4e487b7100000000000000000000000000000000000000000000000000000000600052604160045260246000fd5b6000601f19601f8301169050919050565b7f202d2d204e465420233a20000000000000000000000000000000000000000000600082015250565b7f4552433732313a207472616e7366657220746f206e6f6e20455243373231526560008201527f63656976657220696d706c656d656e7465720000000000000000000000000000602082015250565b7f4552433732313a207472616e736665722066726f6d20696e636f72726563742060008201527f6f776e6572000000000000000000000000000000000000000000000000000000602082015250565b7f4552433732313a20746f6b656e20616c7265616479206d696e74656400000000600082015250565b7f222c20226465736372697074696f6e223a2022416e2065706963204e4654222c60008201527f2022696d616765223a2022697066733a2f2f0000000000000000000000000000602082015250565b7f4552433732313a207472616e7366657220746f20746865207a65726f2061646460008201527f7265737300000000000000000000000000000000000000000000000000000000602082015250565b7f4552433732313a20617070726f766520746f2063616c6c657200000000000000600082015250565b7f4552433732313a2061646472657373207a65726f206973206e6f74206120766160008201527f6c6964206f776e65720000000000000000000000000000000000000000000000602082015250565b7f227d000000000000000000000000000000000000000000000000000000000000600082015250565b7f4552433732313a20617070726f76652063616c6c6572206973206e6f7420746f60008201527f6b656e206f776e6572206e6f7220617070726f76656420666f7220616c6c0000602082015250565b7f4552433732313a206d696e7420746f20746865207a65726f2061646472657373600082015250565b7f7b226e616d65223a202200000000000000000000000000000000000000000000600082015250565b7f4552433732313a20696e76616c696420746f6b656e2049440000000000000000600082015250565b7f4552433732313a20617070726f76616c20746f2063757272656e74206f776e6560008201527f7200000000000000000000000000000000000000000000000000000000000000602082015250565b7f646174613a6170706c69636174696f6e2f6a736f6e3b6261736536342c000000600082015250565b7f4552433732313a2063616c6c6572206973206e6f7420746f6b656e206f776e6560008201527f72206e6f7220617070726f766564000000000000000000000000000000000000602082015250565b612e778161284e565b8114612e8257600080fd5b50565b612e8e81612860565b8114612e9957600080fd5b50565b612ea58161286c565b8114612eb057600080fd5b50565b612ebc816128b8565b8114612ec757600080fd5b5056fe416e204e465420772f20494420257320686173206265656e206d696e74656420746f2025734142434445464748494a4b4c4d4e4f505152535455565758595a6162636465666768696a6b6c6d6e6f707172737475767778797a303132333435363738392b2fa2646970667358221220ac2ce5516e527d79753589625783f28d76ca710041d4308202d9d8b43a00be6364736f6c63430008040033",
  "linkReferences": {},
  "deployedLinkReferences": {}
}